{
  "contractName": "TokenSale",
  "abi": [
    {
      "constant": false,
      "inputs": [],
      "name": "disableSale",
      "outputs": [],
      "payable": false,
      "stateMutability": "nonpayable",
      "type": "function"
    },
    {
      "constant": true,
      "inputs": [],
      "name": "rate",
      "outputs": [
        {
          "name": "",
          "type": "uint256"
        }
      ],
      "payable": false,
      "stateMutability": "view",
      "type": "function"
    },
    {
      "constant": false,
      "inputs": [
        {
          "name": "_rate",
          "type": "uint256"
        }
      ],
      "name": "setRate",
      "outputs": [],
      "payable": false,
      "stateMutability": "nonpayable",
      "type": "function"
    },
    {
      "constant": true,
      "inputs": [],
      "name": "weiRaised",
      "outputs": [
        {
          "name": "",
          "type": "uint256"
        }
      ],
      "payable": false,
      "stateMutability": "view",
      "type": "function"
    },
    {
      "constant": true,
      "inputs": [],
      "name": "saleEnabled",
      "outputs": [
        {
          "name": "",
          "type": "bool"
        }
      ],
      "payable": false,
      "stateMutability": "view",
      "type": "function"
    },
    {
      "constant": true,
      "inputs": [],
      "name": "collectionWallet",
      "outputs": [
        {
          "name": "",
          "type": "address"
        }
      ],
      "payable": false,
      "stateMutability": "view",
      "type": "function"
    },
    {
      "constant": false,
      "inputs": [
        {
          "name": "purchasers",
          "type": "address[]"
        }
      ],
      "name": "addToWhitelist",
      "outputs": [],
      "payable": false,
      "stateMutability": "nonpayable",
      "type": "function"
    },
    {
      "constant": true,
      "inputs": [],
      "name": "owner",
      "outputs": [
        {
          "name": "",
          "type": "address"
        }
      ],
      "payable": false,
      "stateMutability": "view",
      "type": "function"
    },
    {
      "constant": true,
      "inputs": [
        {
          "name": "",
          "type": "address"
        }
      ],
      "name": "whitelist",
      "outputs": [
        {
          "name": "",
          "type": "bool"
        }
      ],
      "payable": false,
      "stateMutability": "view",
      "type": "function"
    },
    {
      "constant": false,
      "inputs": [
        {
          "name": "_collectionWallet",
          "type": "address"
        }
      ],
      "name": "setWalletAddress",
      "outputs": [],
      "payable": false,
      "stateMutability": "nonpayable",
      "type": "function"
    },
    {
      "constant": false,
      "inputs": [],
      "name": "enableSale",
      "outputs": [],
      "payable": false,
      "stateMutability": "nonpayable",
      "type": "function"
    },
    {
      "constant": false,
      "inputs": [
        {
          "name": "_beneficiary",
          "type": "address"
        }
      ],
      "name": "buyTokens",
      "outputs": [],
      "payable": true,
      "stateMutability": "payable",
      "type": "function"
    },
    {
      "constant": false,
      "inputs": [
        {
          "name": "newOwner",
          "type": "address"
        }
      ],
      "name": "transferOwnership",
      "outputs": [],
      "payable": false,
      "stateMutability": "nonpayable",
      "type": "function"
    },
    {
      "constant": true,
      "inputs": [],
      "name": "token",
      "outputs": [
        {
          "name": "",
          "type": "address"
        }
      ],
      "payable": false,
      "stateMutability": "view",
      "type": "function"
    },
    {
      "inputs": [
        {
          "name": "_token",
          "type": "address"
        },
        {
          "name": "_collectionWallet",
          "type": "address"
        }
      ],
      "payable": false,
      "stateMutability": "nonpayable",
      "type": "constructor"
    },
    {
      "payable": true,
      "stateMutability": "payable",
      "type": "fallback"
    },
    {
      "anonymous": false,
      "inputs": [
        {
          "indexed": true,
          "name": "purchaser",
          "type": "address"
        },
        {
          "indexed": true,
          "name": "beneficiary",
          "type": "address"
        },
        {
          "indexed": false,
          "name": "value",
          "type": "uint256"
        },
        {
          "indexed": false,
          "name": "amount",
          "type": "uint256"
        }
      ],
      "name": "TokenPurchase",
      "type": "event"
    },
    {
      "anonymous": false,
      "inputs": [
        {
          "indexed": true,
          "name": "previousOwner",
          "type": "address"
        },
        {
          "indexed": true,
          "name": "newOwner",
          "type": "address"
        }
      ],
      "name": "OwnershipTransferred",
      "type": "event"
    }
  ],
  "bytecode": "0x60606040526000600160146101000a81548160ff0219169083151502179055506103e8600355341561003057600080fd5b604051604080610da983398101604052808051906020019091908051906020019091905050336000806101000a81548173ffffffffffffffffffffffffffffffffffffffff021916908373ffffffffffffffffffffffffffffffffffffffff16021790555081600160006101000a81548173ffffffffffffffffffffffffffffffffffffffff021916908373ffffffffffffffffffffffffffffffffffffffff16021790555080600260006101000a81548173ffffffffffffffffffffffffffffffffffffffff021916908373ffffffffffffffffffffffffffffffffffffffff1602179055505050610c81806101286000396000f3006060604052600436106100d0576000357c0100000000000000000000000000000000000000000000000000000000900463ffffffff1680630a4740ff146100db5780632c4e722e146100f057806334fcf437146101195780634042b66f1461013c57806371b9b6461461016557806378b9f1a9146101925780637f649783146101e75780638da5cb5b146102415780639b19251a14610296578063ac1a386a146102e7578063c683d8e414610320578063ec8ac4d814610335578063f2fde38b14610363578063fc0c546a1461039c575b6100d9336103f1565b005b34156100e657600080fd5b6100ee6106b5565b005b34156100fb57600080fd5b61010361072d565b6040518082815260200191505060405180910390f35b341561012457600080fd5b61013a6004808035906020019091905050610733565b005b341561014757600080fd5b61014f610798565b6040518082815260200191505060405180910390f35b341561017057600080fd5b61017861079e565b604051808215151515815260200191505060405180910390f35b341561019d57600080fd5b6101a56107b1565b604051808273ffffffffffffffffffffffffffffffffffffffff1673ffffffffffffffffffffffffffffffffffffffff16815260200191505060405180910390f35b34156101f257600080fd5b61023f6004808035906020019082018035906020019080806020026020016040519081016040528093929190818152602001838360200280828437820191505050505050919050506107d7565b005b341561024c57600080fd5b6102546108c2565b604051808273ffffffffffffffffffffffffffffffffffffffff1673ffffffffffffffffffffffffffffffffffffffff16815260200191505060405180910390f35b34156102a157600080fd5b6102cd600480803573ffffffffffffffffffffffffffffffffffffffff169060200190919050506108e7565b604051808215151515815260200191505060405180910390f35b34156102f257600080fd5b61031e600480803573ffffffffffffffffffffffffffffffffffffffff16906020019091905050610907565b005b341561032b57600080fd5b6103336109a6565b005b610361600480803573ffffffffffffffffffffffffffffffffffffffff169060200190919050506103f1565b005b341561036e57600080fd5b61039a600480803573ffffffffffffffffffffffffffffffffffffffff16906020019091905050610a1d565b005b34156103a757600080fd5b6103af610b72565b604051808273ffffffffffffffffffffffffffffffffffffffff1673ffffffffffffffffffffffffffffffffffffffff16815260200191505060405180910390f35b600080600160149054906101000a900460ff16151561040f57600080fd5b3360011515600560008373ffffffffffffffffffffffffffffffffffffffff1673ffffffffffffffffffffffffffffffffffffffff16815260200190815260200160002060009054906101000a900460ff16151514151561046f57600080fd5b8360011515600560008373ffffffffffffffffffffffffffffffffffffffff1673ffffffffffffffffffffffffffffffffffffffff16815260200190815260200160002060009054906101000a900460ff1615151415156104cf57600080fd5b600073ffffffffffffffffffffffffffffffffffffffff168573ffffffffffffffffffffffffffffffffffffffff161415151561050b57600080fd5b6000341015151561051b57600080fd5b34935061053360035485610b9890919063ffffffff16565b925061054a84600454610bd390919063ffffffff16565b600481905550600160009054906101000a900473ffffffffffffffffffffffffffffffffffffffff1673ffffffffffffffffffffffffffffffffffffffff1663a9059cbb86856000604051602001526040518363ffffffff167c0100000000000000000000000000000000000000000000000000000000028152600401808373ffffffffffffffffffffffffffffffffffffffff1673ffffffffffffffffffffffffffffffffffffffff16815260200182815260200192505050602060405180830381600087803b151561061d57600080fd5b6102c65a03f1151561062e57600080fd5b50505060405180519050508473ffffffffffffffffffffffffffffffffffffffff163373ffffffffffffffffffffffffffffffffffffffff167f623b3804fa71d67900d064613da8f94b9617215ee90799290593e1745087ad188686604051808381526020018281526020019250505060405180910390a36106ae610bf1565b5050505050565b6000809054906101000a900473ffffffffffffffffffffffffffffffffffffffff1673ffffffffffffffffffffffffffffffffffffffff163373ffffffffffffffffffffffffffffffffffffffff1614151561071057600080fd5b6000600160146101000a81548160ff021916908315150217905550565b60035481565b6000809054906101000a900473ffffffffffffffffffffffffffffffffffffffff1673ffffffffffffffffffffffffffffffffffffffff163373ffffffffffffffffffffffffffffffffffffffff1614151561078e57600080fd5b8060038190555050565b60045481565b600160149054906101000a900460ff1681565b600260009054906101000a900473ffffffffffffffffffffffffffffffffffffffff1681565b60008060009054906101000a900473ffffffffffffffffffffffffffffffffffffffff1673ffffffffffffffffffffffffffffffffffffffff163373ffffffffffffffffffffffffffffffffffffffff1614151561083457600080fd5b600090505b81518110156108be57600160056000848481518110151561085657fe5b9060200190602002015173ffffffffffffffffffffffffffffffffffffffff1673ffffffffffffffffffffffffffffffffffffffff16815260200190815260200160002060006101000a81548160ff0219169083151502179055508080600101915050610839565b5050565b6000809054906101000a900473ffffffffffffffffffffffffffffffffffffffff1681565b60056020528060005260406000206000915054906101000a900460ff1681565b6000809054906101000a900473ffffffffffffffffffffffffffffffffffffffff1673ffffffffffffffffffffffffffffffffffffffff163373ffffffffffffffffffffffffffffffffffffffff1614151561096257600080fd5b80600260006101000a81548173ffffffffffffffffffffffffffffffffffffffff021916908373ffffffffffffffffffffffffffffffffffffffff16021790555050565b6000809054906101000a900473ffffffffffffffffffffffffffffffffffffffff1673ffffffffffffffffffffffffffffffffffffffff163373ffffffffffffffffffffffffffffffffffffffff16141515610a0157600080fd5b60018060146101000a81548160ff021916908315150217905550565b6000809054906101000a900473ffffffffffffffffffffffffffffffffffffffff1673ffffffffffffffffffffffffffffffffffffffff163373ffffffffffffffffffffffffffffffffffffffff16141515610a7857600080fd5b600073ffffffffffffffffffffffffffffffffffffffff168173ffffffffffffffffffffffffffffffffffffffff1614151515610ab457600080fd5b8073ffffffffffffffffffffffffffffffffffffffff166000809054906101000a900473ffffffffffffffffffffffffffffffffffffffff1673ffffffffffffffffffffffffffffffffffffffff167f8be0079c531659141344cd1fd0a4f28419497f9722a3daafe3b4186f6b6457e060405160405180910390a3806000806101000a81548173ffffffffffffffffffffffffffffffffffffffff021916908373ffffffffffffffffffffffffffffffffffffffff16021790555050565b600160009054906101000a900473ffffffffffffffffffffffffffffffffffffffff1681565b6000806000841415610bad5760009150610bcc565b8284029050828482811515610bbe57fe5b04141515610bc857fe5b8091505b5092915050565b6000808284019050838110151515610be757fe5b8091505092915050565b600260009054906101000a900473ffffffffffffffffffffffffffffffffffffffff1673ffffffffffffffffffffffffffffffffffffffff166108fc349081150290604051600060405180830381858888f193505050501515610c5357600080fd5b5600a165627a7a72305820402b8f734653bee76781d96f44089eeb0a8fd8f4f5a74f8852ee02ec423fb7130029",
  "source": "pragma solidity ^0.4.18;\n\nimport \"./base/Ownable.sol\";\nimport \"./base/SafeMath.sol\";\nimport \"./TestToken.sol\";\n\ncontract TokenSale is Ownable {\n  using SafeMath for uint256;\n\n  // token address\n  TestToken public token;\n  // flag to turn sale on and off\n  bool public saleEnabled = false;\n  // address where funds are collected\n  address public collectionWallet;\n  // how many token units a buyer gets per wei\n  uint256 public rate = 1000;\n  // amount of raised money in wei\n  uint256 public weiRaised;\n\n  // only whitelisted address are allowed to participate\n  mapping (address => bool) public whitelist;\n\n  /**\n   * event for token purchase logging\n   * @param purchaser who paid for the tokens\n   * @param beneficiary who got the tokens\n   * @param value weis paid for purchase\n   * @param amount amount of tokens purchased\n   */\n  event TokenPurchase(address indexed purchaser, address indexed beneficiary, uint256 value, uint256 amount);\n\n  modifier onlyWhenSaleEnabled() {\n    require(saleEnabled);\n    _;\n  }\n\n  modifier onlyWhitelisted(address _purchaser) {\n    require(whitelist[_purchaser] == true);\n    _;\n  }\n\n  function TokenSale(address _token, address _collectionWallet)\n    public\n  {\n    token = TestToken(_token);\n    collectionWallet = _collectionWallet;\n  }\n\n  /* owner functions */\n\n  function setWalletAddress(address _collectionWallet)\n    onlyOwner\n    public\n  {\n    collectionWallet = _collectionWallet;\n  }\n  // allow owner to start the sale\n  function enableSale()\n    onlyOwner\n    public\n  {\n    saleEnabled = true;\n  }\n\n  // allow owner to stop the sale\n  function disableSale()\n    onlyOwner\n    public\n  {\n    saleEnabled = false;\n  }\n\n  // allow owner to set rate of conversion\n  function setRate(uint _rate)\n    onlyOwner\n    public\n  {\n    rate = _rate;\n  }\n\n  function addToWhitelist (address[] purchasers)\n    onlyOwner\n    public\n  {\n       for (uint i = 0; i < purchasers.length; i++) {\n           whitelist[purchasers[i]] = true;\n       }\n   }\n\n  // low level token purchase function\n  function buyTokens(address _beneficiary)\n    onlyWhenSaleEnabled\n    onlyWhitelisted(msg.sender)\n    onlyWhitelisted(_beneficiary)\n    public\n    payable\n  {\n    require(_beneficiary != address(0));\n    require(msg.value >= 0);\n\n    uint256 weiAmount = msg.value;\n\n    // calculate token amount to be created\n    uint256 tokenAmount = weiAmount.mul(rate);\n\n    // update state\n    weiRaised = weiRaised.add(weiAmount);\n\n    token.transfer(_beneficiary, tokenAmount);\n    TokenPurchase(msg.sender, _beneficiary, weiAmount, tokenAmount);\n\n    forwardFunds();\n  }\n\n  // send ether to the fund collection collectionWallet\n  // override to create custom fund forwarding mechanisms\n  function forwardFunds()\n    internal\n  {\n    collectionWallet.transfer(msg.value);\n  }\n\n  // fallback function can be used to buy tokens\n  function ()\n    external\n    payable\n  {\n    buyTokens(msg.sender);\n  }\n\n}\n",
  "sourcePath": "/Users/jerrychai/Blockchain/ico-Test/contracts/TokenSale.sol",
  "compiler": {
    "name": "solc",
    "version": "0.4.18+commit.9cf6e910.Emscripten.clang"
  },
  "schemaVersion": "1.0.1",
  "updatedAt": "2018-04-02T10:32:18.699Z"
}